:1000000009C0B4C015C015C013C012C011C010C0C3
:100010000FC00EC011241FBECFE9CDBF20E0A0E667
:10002000B0E001C01D92A737B207E1F720D16EC141
:10003000E7CF1F920F920FB60F9211248F939F93C9
:10004000AF93BF938091600090916100A091620096
:10005000B09163000196A11DB11D80936000909343
:100060006100A0936200B0936300BF91AF919F9134
:100070008F910F900FBE0F901F9018959EEF960FC7
:10008000933040F091EF960F933020F09CEE960F56
:10009000923078F4282F30E0A90102C05595479599
:1000A0009A95E2F740FF05C068EC7FEA80E090E0B7
:1000B000089560EC7DE580E090E00895CF92DF92B6
:1000C000EF92FF920F931F93CF93DF93182FEB01C3
:1000D00098B3888196FB442740F950E0282F21707F
:1000E00030E042175307B9F16881812FC7DFC09014
:1000F0006F00D0907000E0907100F0907200DC0111
:10010000CB0185519443A109B109C816D906EA0665
:10011000FB0608F16881812FB1DF00916F0010911B
:1001200070002091710030917200DC01CB018B5E78
:100130009B4CAF4FBF4F80179107A207B30758F0F2
:1001400088818F5F88838881873119F4188281E0E4
:1001500004C080E002C01882F6CFDF91CF911F91DA
:100160000F91FF90EF90DF90CF9008951F920F9224
:100170000FB60F9211242F933F934F935F936F937A
:100180007F938F939F93AF93BF93EF93FF93809150
:10019000600090916100A0916200B0916300409175
:1001A0007300509174006091750070917600841B0B
:1001B000950BA60BB70B80936F0090937000A093E4
:1001C0007100B09372008091600090916100A091E5
:1001D0006200B09163008093730090937400A093C9
:1001E0007500B09376006EE670E089E167DF8111FB
:1001F00006C06DE670E08CE161DF882321F081E0CC
:100200008093680023C06CE670E08CE957DF8111B1
:1002100006C06BE670E089E951DF882321F081E0B8
:100220008093670013C06AE670E084EE47DF88239E
:1002300021F081E08093660009C069E670E081EEFC
:100240003DDF882319F081E080936500FF91EF91F5
:10025000BF91AF919F918F917F916F915F914F91DE
:100260003F912F910F900FBE0F901F9018958DE02A
:1002700087BB80E48BBF85B7816085BF85B78D7FE5
:1002800085BF82E089BF88B3837F88BB78948091E3
:100290006800882321F010926800C29A07C08091FC
:1002A00067008823B9F010926700C298C39A8FE55F
:1002B00099E00197F1F700C00000C398EFE5F9E07D
:1002C0003197F1F700C00000809164008F5F809348
:1002D0006400DDCF809166008823A9F0C2988091E8
:1002E00064008823A1F2C39AEFE5F9E03197F1F7B2
:1002F00000C00000C398EFE5F9E03197F1F700C0C6
:1003000000008150EECF80916500C1CFF894FFCFFF
:00000001FF
