S0170000526F7374656C65636F6D536F756E642E73726563E7
S113000009C03CC015C015C013C012C011C010C037
S11300100FC00EC011241FBECFE9CDBF20E0A0E663
S1130020B0E001C01D92A837B207E1F7E1D069C181
S1130030E7CF1F920F920FB60F9211248F939F93C5
S1130040AF93BF938091600090916100A091620092
S1130050B09163000196A11DB11D8093600090933F
S11300606100A0936200B0936300BF91AF919F9130
S11300708F910F900FBE0F901F9018951F920F92A3
S11300800FB60F9211244F935F936F937F938F93C7
S11300909F93AF93BF938091600090916100A09172
S11300A06200B091630040917400509175006091BA
S11300B0760070917700841B950BA60BB70B809389
S11300C0700090937100A0937200B09373008091BC
S11300D0600090916100A0916200B09163008093F0
S11300E0740090937500A0937600B093770081E03C
S11300F080936F00BF91AF919F918F917F916F918A
S11301005F914F910F900FBE0F901F9018950F9312
S11301101F93FB0128B326FB222720F930819EEF91
S1130120930F933040F091EF930F933020F09CEEB7
S1130130930F923078F4682F70E0DB0102C0B5951C
S1130140A7959A95E2F7A0FF05C082E490E0A0E0AD
S1130150B0E004C081E290E0A0E0B0E0608130E073
S1130160462F417050E02417350771F1409170001B
S11301705091710060917200709173008C019D0127
S1130180005111092109310940175107620773070A
S1130190D8F040917000509171006091720070919C
S11301A073004096A11DB11D84179507A607B707D4
S11301B058F080818F5F80838081873119F41082A9
S11301C081E004C080E002C01082F6CF1F910F913D
S11301D00895C3988FE599E00197F1F700C00000F6
S11301E0C39A8FE599E00197F1F700C000000895E4
S11301F08DE087BB80E48BBF85B7816085BF85B701
S11302008D7F85BF82E089BF81E083BFC298C39A96
S11302107894C09AC0E0D1E080916F008823E1F324
S1130220F89410926F006EE670E089E170DF882325
S113023019F0D093680025C06DE670E08CE167DFAB
S11302408111F7CF6CE670E08CE961DF882319F047
S1130250D093670016C06BE670E089E958DF81111E
S1130260F7CF6AE670E084EE52DF882319F0D0936A
S1130270660007C069E670E081EE49DF8111D09322
S1130280650080916800882351F0C11108C0109264
S11302906800C29A9EDF809164008F5F0DC08091D8
S11302A06700882361F0C1110AC010926700C298E8
S11302B090DF8091640081508093640020C080911D
S11302C06600882351F0C11108C0C298C09164002F
S11302D0CC23A1F07EDFC150FBCF80916500882341
S11302E071F0C11102C0C0E00AC0C29AC0E080919E
S11302F06400C817C0F76DDFCF5FF9CFC1E0789411
S10903008BCFF894FFCF3F
S9030000FC
