:1000000009C047C020C020C01EC01DC01CC01BC0EE
:100010001AC019C011241FBECFE9CDBF10E0A0E661
:10002000B0E0E8EDF3E002C005900D92A836B1070C
:10003000D9F720E0A8E6B0E001C01D92A937B207C9
:10004000E1F762D1C7C1DCCF1F920F920FB60F92BA
:1000500011248F939F93AF93BF93809168009091E9
:100060006900A0916A00B0916B000196A11DB11DBD
:100070008093680090936900A0936A00B0936B002E
:10008000BF91AF919F918F910F900FBE0F901F90D6
:1000900018951F920F920FB60F9211244F935F93F2
:1000A0006F937F938F939F93AF93BF9380916800DB
:1000B00090916900A0916A00B0916B004091750029
:1000C000509176006091770070917800841B950BB9
:1000D000A60BB70B8093710090937200A0937300EE
:1000E000B09374008091680090916900A0916A00BB
:1000F000B0916B008093750090937600A093770089
:10010000B093780081E080936F0086B386FB8827E8
:1001100080F980937000BF91AF919F918F917F91F3
:100120006F915F914F910F900FBE0F901F90189598
:100130002F923F924F925F926F927F928F929F92F7
:10014000AF92BF92DF92EF92FF920F931F93CF93E4
:10015000DF931F92CDB7DD278091710090917200DF
:10016000A0917300B091740088379140A105B1054A
:1001700030F010926E008FE38093610097C0809101
:100180006100882309F492C090916E00AEEFA90F30
:1001900001EF090F24EFF22EF90E5CEE590F59838F
:1001A00032EFE32EE90E192F1170E2E6F0E020E0C5
:1001B00030E022242394312CD22E482F50E0022EFE
:1001C00002C0559547950A94E2F740FF48C0408128
:1001D000A33038F0033038F0B981B23090F46E2D8E
:1001E00003C06A2F01C06F2D50E002C0559547959E
:1001F0006A95E2F740FF05C043E450E060E070E03C
:1002000004C041E250E060E070E0B09070001B1567
:1002100009F450C08090710090907200A09073001B
:10022000B09074002A013B01B3E14B1A51086108F8
:10023000710884149504A604B704E0F1809071005D
:1002400090907200A0907300B09074004D5E5F4F6C
:100250006F4F7F4F481559056A057B0558F12F5F91
:100260003F4F31962630310509F0A6CF80936100CB
:100270009F5F90936E009731C9F48823B9F0843062
:1002800079F030F48130A1F0823081F481E01AC03D
:10029000803141F0803241F0883041F483E012C077
:1002A00082E010C084E00EC085E00CC08FEF0AC071
:1002B00080E008C0A10101C0440FDA94EAF740953C
:1002C0008423CDCF0F90DF91CF911F910F91FF909D
:1002D000EF90DF90BF90AF909F908F907F906F9046
:1002E0005F904F903F902F900895C3988FE599E0CD
:1002F0000197F1F700C00000C39A8FE599E00197DC
:10030000F1F700C0000008958DE087BB80E48BBF4B
:1003100085B7816085BF85B78D7F85BF82E089BF46
:1003200081E083BFC298C39A7894C098D1E080914D
:100330006F008823E1F310926F00FADE8093600073
:100340008F3FA9F3823070F490916C00943650F492
:1003500080916D008111EBCFC29AC7DF80916C0054
:100360008F5F11C09EEF980F923080F480916C00E7
:100370008823E9F280916D008111D9CFC298B5DF51
:1003800080916C00815080936C00D1CF843071F4E7
:1003900080916D008111CBCFD0936D00C298C09138
:1003A0006C00CC2321F2A1DFC150FBCF853009F0D6
:1003B000BECF80916D00882309F4B9CF10926D00F3
:1003C000C29AC0E080916C00C81708F0B0CF8DDFF2
:0803D000CF5FF8CFF894FFCFD6
:0803D800FF3F191C9C99E4E1B0
:00000001FF
