:1000000009C09FC015C015C013C012C011C010C0D8
:100010000FC00EC011241FBECFE9CDBF20E0A0E667
:10002000B0E001C01D92A737B207E1F71AD1B0C105
:10003000E7CF1F920F920FB60F9211248F939F93C9
:10004000AF93BF938091600090916100A091620096
:10005000B09163000196A11DB11D80936000909343
:100060006100A0936200B0936300BF91AF919F9134
:100070008F910F900FBE0F901F9018950F931F93A5
:10008000FB0128B326FB222720F930819EEF930F36
:10009000933040F091EF930F933020F09CEE930F4C
:1000A000923078F4682F70E0DB0102C0B595A79517
:1000B0009A95E2F7A0FF05C088EC9FEAA0E0B0E0C7
:1000C00004C080EC9DE5A0E0B0E0608130E0462F08
:1000D000417050E02417350779F140916F0050913D
:1000E000700060917100709172008C019D0105514A
:1000F0001443210931094017510762077307E0F0E3
:1001000040916F0050917000609171007091720089
:100110008B5E9B4CAF4FBF4F84179507A607B70761
:1001200058F080818F5F80838081873119F410823D
:1001300081E004C080E002C01082F6CF1F910F91D1
:1001400008951F920F920FB60F9211242F933F9391
:100150004F935F936F937F938F939F93AF93BF93CF
:10016000EF93FF938091600090916100A0916200F5
:10017000B0916300409173005091740060917500DC
:1001800070917600841B950BA60BB70B80936F00C4
:1001900090937000A0937100B09372008091600002
:1001A00090916100A0916200B09163008093730010
:1001B00090937400A0937500B09376006EE670E0A3
:1001C00089E15CDF811106C06DE670E08CE156DFED
:1001D000882321F081E08093680023C06CE670E002
:1001E0008CE94CDF811106C06BE670E089E946DFDF
:1001F000882321F081E08093670013C06AE670E0F5
:1002000084EE3CDF882321F081E08093660009C002
:1002100069E670E081EE32DF882319F081E0809397
:100220006500FF91EF91BF91AF919F918F917F9169
:100230006F915F914F913F912F910F900FBE0F9053
:100240001F901895C3988FE599E00197F1F700C0CA
:100250000000C39A8FE599E00197F1F700C0000014
:1002600008958DE087BB80E48BBF85B7816085BF33
:1002700085B78D7F85BF82E089BF81E083BFC2984B
:10028000C39A7894C09AC0E080EFC82E89E4D82E33
:1002900082E0E82EF12CD1E0609160007091610065
:1002A0008091620090916300A70196014FD0672B67
:1002B000682B692B19F488B38D2788BB809168005F
:1002C000882359F0C11109C0F89410926800C29AAD
:1002D000B9DF809164008F5F0EC080916700882332
:1002E00071F0C1110CC0F89410926700C298AADF97
:1002F000809164008150809364007894CDCF809188
:100300006600882311F0CC23A9F080916500882332
:1003100009F4C2CFCC2309F4BFCFF894C29AC0E04D
:1003200080916400C81718F48DDFCF5FF9CF7894FF
:10033000C0E0B2CFF894C298C0916400CC2319F009
:1003400081DFC150FBCF7894C1E0A6CFA1E21A2E85
:10035000AA1BBB1BFD010DC0AA1FBB1FEE1FFF1F69
:10036000A217B307E407F50720F0A21BB30BE40BB9
:10037000F50B661F771F881F991F1A9469F7609500
:100380007095809590959B01AC01BD01CF010895BA
:04039000F894FFCF0F
:00000001FF
