:1000000009C0CDC015C015C013C012C011C010C0AA
:100010000FC00EC011241FBECFE9CDBF20E0A0E667
:10002000B0E001C01D92A637B207E1F736D143C157
:10003000E7CF1F920F920FB60F9211248F939F93C9
:10004000AF93BF938091600090916100A091620096
:10005000B09163000196A11DB11D80936000909343
:100060006100A0936200B0936300BF91AF919F9134
:100070008F910F900FBE0F901F901895623008F16E
:100080009BEF960F9A3010F19EEE960F923018F17A
:10009000663131F12EEF260F233030F021EF260F9D
:1000A000233010F02CEE260F90E002C09595879536
:1000B0002A95E2F780FD19C060EC7DE580E090E0D4
:1000C000089560EC7DE580E090E0089560EC7DE5CA
:1000D00080E090E0089560EC7DE580E090E0089598
:1000E00060EC7DE580E090E0089568EC7FEA80E0D8
:1000F00090E00895CF92DF92EF92FF921F93CF93FB
:10010000DF93182FEB0198B3888196FB442740F9C1
:1001100050E0282F217030E04217530781F16881A9
:10012000812FACDFC0906E00D0906F00E090700027
:10013000F0907100DC01CB0185519443A109B10914
:10014000C816D906EA06FB06D0F06881812F96DF33
:10015000C0906E00D0906F00E0907000F090710041
:10016000DC01CB018B5E9B4CAF4FBF4F8C159D05C7
:10017000AE05BF0520F088818F5F888301C018829B
:100180008881873119F4188281E001C080E0DF9115
:10019000CF911F91FF90EF90DF90CF9008951F9225
:1001A0000F920FB60F9211242F933F934F935F93AB
:1001B0006F937F938F939F93AF93BF93EF93FF932F
:1001C0008091600090916100A0916200B091630005
:1001D00040917200509173006091740070917500AD
:1001E000841B950BA60BB70B80936E0090936F004A
:1001F000A0937000B09371008091600090916100B5
:10020000A0916200B091630080937200909373009C
:10021000A0937400B09375006DE670E089E16ADF29
:10022000811106C06CE670E08CE164DF882319F070
:1002300081E0809367006BE670E08CE95BDF811101
:1002400006C06AE670E089E955DF882319F081E08D
:100250008093660069E670E084EE4CDF882319F035
:1002600081E08093650068E670E081EE43DF8823DB
:1002700019F081E080936400FF91EF91BF91AF91FD
:100280009F918F917F916F915F914F913F912F91AE
:100290000F900FBE0F901F9018958DE087BB80E4E4
:1002A0008BBF85B7816085BF85B78D7F85BF82E0B5
:0A02B00089BF7894FFCFF894FFCFC8
:00000001FF
