:1000000009C0C4C015C015C013C012C011C010C0B3
:100010000FC00EC011241FBECFE9CDBF20E0A0E667
:10002000B0E001C01D92A737B207E1F738D19AC1FD
:10003000E7CF1F920F920FB60F9211248F939F93C9
:10004000AF93BF938091600090916100A091620096
:10005000B09163000196A11DB11D80936000909343
:100060006100A0936200B0936300BF91AF919F9134
:100070008F910F900FBE0F901F9018950F931F93A5
:10008000FB0168B3908166FB442740F950E0292FBB
:10009000217030E04217530709F46DC020819EEFB4
:1000A000920F933040F091EF920F933020F09CEE3E
:1000B000920F923070F4282F30E002C035952795CA
:1000C0009A95E2F720FD0AC040EC5DE560E070E043
:1000D00009C040EC5DE560E070E004C048EC5FEA18
:1000E00060E070E000916F0010917000209171004D
:1000F0003091720045515443610971090417150785
:1001000026073707C0F190812EEF290F233040F0EA
:1001100021EF290F233020F02CEE290F223068F434
:1001200090E002C0959587952A95E2F780FD0AC078
:1001300080EC9DE5A0E0B0E009C080EC9DE5A0E08A
:10014000B0E004C088EC9FEAA0E0B0E040916F000E
:100150005091700060917100709172008B5E9B4CA9
:10016000AF4FBF4F84179507A607B70720F08081D0
:100170008F5F808301C010828081873119F41082E3
:1001800081E001C080E01F910F9108951F920F92AE
:100190000FB60F9211242F933F934F935F936F935A
:1001A0007F938F939F93AF93BF93EF93FF93809130
:1001B000600090916100A0916200B0916300409155
:1001C0007300509174006091750070917600841BEB
:1001D000950BA60BB70B80936F0090937000A093C4
:1001E0007100B09372008091600090916100A091C5
:1001F0006200B09163008093730090937400A093A9
:100200007500B09376006EE670E089E137DF8823F1
:1002100021F081E08093680031C06DE670E08CE1F0
:100220002DDF882321F081E08093680027C06CE6F1
:1002300070E08CE923DF882321F081E08093670060
:100240001DC06BE670E089E919DF882321F081E0A9
:100250008093670013C06AE670E084EE0FDF8823A6
:1002600021F081E08093660009C069E670E081EECC
:1002700005DF882319F081E080936500FF91EF91FD
:10028000BF91AF919F918F917F916F915F914F91AE
:100290003F912F910F900FBE0F901F9018958DE0FA
:1002A00087BB80E48BBF85B7816085BF85B78D7FB5
:1002B00085BF82E089BF88B3837F88BB78948091B3
:1002C00068008823B9F010926800C29AC39A8FE53B
:1002D00099E00197F1F700C00000C398EFE5F9E05D
:1002E0003197F1F700C00000809164008F5F809328
:1002F0006400E5CF809167008823B9F01092670011
:10030000C298C39A8FE599E00197F1F700C0000009
:10031000C398EFE5F9E03197F1F700C00000809154
:1003200064008F5F80936400CACF80916600882349
:10033000B1F0C29880916400882309F2C39AEFE576
:10034000F9E03197F1F700C00000C398EFE5F9E05C
:100350003197F1F700C00000815081F7B0CF809154
:080360006500ADCFF894FFCF5A
:00000001FF
